:03000000021C9C43
:0C1C9C00787FE4F6D8FD758122021CE37D
:0C000300000000000000000000000000F1
:0B001200EF1FAC0670011E4C70F622C0
:1022A500AB07AA06EB1BAE0270011A4E60097FAAA6
:0822B5007E0512001280ED22EB
:10185300907120E04480F07F057E00120012E4FFC7
:10186300FE1222A575A75575AC589071327450F0CD
:101873009071307403F0907136742FF07F18EF2459
:1018830066FDE434718D82F583E4F00FEFB433EE3B
:10189300904011E4935407FF90711CE054F84FF00B
:1018A300904017E493547FFF90711DE054804FF0F4
:1018B300904010E493FF5401C43333335480FE90BB
:1018C3007123E0547F4EF0EFC313543F4440FFA312
:1018D300E054804FF0904012E493FF540FFE907158
:1018E30046E054F04EF0EFC4540FFF90714FE054B4
:1018F300F04FF0904013E493543FFF907140E05455
:10190300C04FF0904014E493907126F0904015E49A
:0E19130093907128F0904016E49390712AF0A2
:0119210022A3
:1020EB0054583843313236785F53444B206D616915
:1020FB006E2073746172740A00616463305F766181
:10210B006C203D2025642020616463315F76616C17
:0A211B00203D202564200D0A20005D
:0B1AB5004160E3004460E4000000001A
:0E22BD009060D1EFF01222CB9060D1E0FF22B2
:101F3D001218539060E87401F07F0A7E001222A5FA
:101F4D001222057BFF7A2079EB122125122158E50B
:101F5D00B254CF441042B2E5B2543F444042B212A3
:101F6D00222412205C1220A51219F1120EAA7BFF59
:101F7D007A2179049060D5E0FFA3E09060A4CFF0C2
:101F8D00A3EFF09060D7E0FFA3E09060A6CFF0A3A1
:101F9D00EFF01208CD12223F75D9AA122185122118
:061FAD00B2121EBE80F21C
:0D22CB00E5F430E4FB8FF7E5F430E4FB228E
:10220500E4906070F078E2E254F3F2E24404F29074
:0E221500718F7403F075F60175F59F75F21068
:012223002298
:102125009060D2EBF0A3EAF0A3E9F09060D2E0FB77
:10213500A3E0FAA3E0F912053C60179060D2A3E48E
:1021450075F0011205FBA9F0FA12053CFF1222CB2E
:0321550080D9220C
:051AC0004260ED000092
:1022240043A820D2AF75D10178957401F218747661
:0B223400F2789174A0F21874FDF22201
:03001E00021DB40C
:101DB400C0E0C0F0C083C082C0D075D000C000C0F5
:101DC40001C002C003C004C005C006C00775B2A0AC
:101DD4007891E230E743E24480F29060E3E0C39418
:101DE400FF5003E004F01222731219F19060EEE048
:101DF40004F070069060EDE004F0C39060EEE094AF
:101E0400E89060EDE094034010E4F0A3F012138630
:101E1400120CE5121757121D2875B250D007D006C0
:101E2400D005D004D003D002D001D000D0D0D082CD
:071E3400D083D0F0D0E032B2
:10205C0078567407F278277417F218746FF2783385
:10206C00E4F218F27819E24401F27811E24401F238
:10207C007817E24401F27812E24401F27814E24457
:10208C0001F27818E24401F278D3E254CFF2E24440
:09209C0010F290718C740AF0221C
:0A1AC5004260E900004260EB0000FF
:1021580078D3E254FCF2907172740DF043A90475BF
:10216800D11075E6FF75E7FF75DAFEE4F5DB75DC7F
:0D2178004275DD0475DF0375DE01D2AF2274
:03002A000220129F
:10201200C0E0C083C082C0D075D000C005C007E553
:10202200EE30E11243E202AFE9EFFFADE8ED90607E
:10203200EBCFF0A3EFF0E5EE30E01243E201AFE7C1
:10204200EFFFADE6ED9060E9CFF0A3EFF0D007D05F
:0A20520005D0D0D082D083D0E03258
:1014EE006C5F7077722E656E203D20310D0A006C98
:1014FE005F7077722E656E203D20300D0A00657884
:10150E005F74656D705F656E203D20300D0A00655D
:10151E00785F74656D705F656E203D20310D0A0039
:10152E0061646A7573745F656E203D20300D0A002C
:10153E0061646A7573745F656E203D20310D0A001B
:10154E005F335F312E656E20203D20310D0A005F26
:10155E00335F312E656E20203D20300D0A00745F02
:10156E006374726C2E656E203D20310D0A00745F1F
:10157E006374726C2E656E203D20300D0A00745F10
:10158E006374726C2E6C697374203D2030200D0ACA
:10159E0000745F6374726C2E6C697374203D20311D
:1015AE000D0A2000745F6374726C2E6C6973742064
:1015BE003D20320D0A2000745F6374726C2E6C69CC
:1015CE007374203D20330D0A2000745F6374726CB7
:1015DE002E6C697374203D20340D0A006C766420E5
:1015EE00707772206C6F77200A004C45445F50571D
:1015FE00525F4F4E001770040BB8080000FF1770B3
:10160E00051068030BB8040000FF1770041068047F
:10161E000BB8040000FF1770040E10020708030E2B
:08162E0010021770010000FF1B
:101ACF0042601200004460260000000044603A00AB
:101ADF0000000044606B00000000426020000042E4
:101AEF0060691770C11741606700C11549602F17F2
:101AFF0070060BB8060000FF42600000FF4260381E
:101B0F0000004160170041606F01546053000000F6
:101B1F0000000000000000000000000000000000B6
:101B2F00004260090000C112C113416048004160CA
:101B3F00680041601F004460053F80000044602A38
:0B1B4F00428C000044602200000000F7
:101EBE009060DBE0FEA3E0FF7C007D171205A6AB71
:101ECE0007AA06301668D3E094609060DBE0940EAB
:101EDE0040028018EB4A700B906049740EF0A374A8
:101EEE00108012C3EB94A0EA9400401390604974E2
:101EFE0017F0A37470F0906000EAF0A3EBF022905C
:101F0E006000E06A7003A3E06B60237C007D0FAF7E
:101F1E0003AE02120594EF2410FFEE340E906049CA
:0E1F2E00F0A3EFF0AF03906000EAF0A3EFF035
:011F3C002282
:101386002014030214EB906011E060030214EB30AA
:101396001316906069E0FFA3E0906053CFF0A3EFCF
:1013A600F0E4906017F0C213C39060E2E094B89046
:1013B60060E1E0940B507990606FE0640170719089
:1013C6006026A3A3E0FEA3E0FF906017E0FB25E004
:1013D6002453F582E43460F583EEF0A3EFF09060D9
:1013E60053E0FEA3E0FF7C007D0A1205A6EB240174
:1013F600FDE433FC120594C3E09FFF906053E09E2A
:10140600FE906009F0A3EFF0E490606FF090603812
:10141600F0A3F0906069EEF0A3EFF0906017E0049F
:10142600F0E0D394094007E4906069F0A3F0D2128B
:10143600D39060E2E094B89060E1E0940B50030230
:1014460014C5E4906017F030127590606FE0640187
:10145600706D20135D30161D906018E0B401079082
:10146600603AA3A38003906049E0FFA3E09060691F
:10147600CFF0A3EFF020161D906018E0B40107909E
:10148600606BA3A38003906053E0FFA3E0906069C4
:10149600CFF0A3EFF020801A906020E0FEA3E0FFDB
:1014A600D390606AE09F906069E09E4005EEF0A3ED
:1014B600EFF030130AC213C212E4906017F02290C4
:1014C6006039E004F07006906038E004F09060380F
:1014D600E0B40711A3E0B4080CE4906038F0A3F080
:0814E60090606F04F0D21522A2
:1021DD00906012E0FEA3E0FFC374709F906071F0F9
:1021ED0074179E906070F0EE7833F2906013E018E3
:0721FD00F27817E24401F241
:0122040022B7
:10227300906002E0C3940A5003E004F090602EE003
:0922830004F0906048E004F02230
:10218500906002E0C3940A4012E4F0906018E0B455
:102195000103121203121636121922906048E0B498
:0D21A5000308E4F0121C08121B6702105D15
:101203009060EBE0FAA3E0FB4A70269060E9E0709F
:1012130002A3E0701C20940A90602612079100003C
:1012230000003094529060261207910000177080DE
:1012330046EB2401FFE43AFE7C177D7012083590DB
:101243006026120785906026E0FCA3E0FDA3E0FE84
:10125300A3E0FFC006C0079060EAE02401FF9060AE
:10126300E9E03400AB07FAE4F9F8D007D006120638
:10127300D4906026120785E49060EBF0A3F09060B1
:10128300E9F0A3F0906026A3A3E0FEA3E0FF906043
:1012930068E025E0243EF582E43460F583EEF0A3B4
:1012A300EFF0906068E004F0E0B4050B90601F7409
:1012B30001F0E4906068F090601FE06401706D904D
:1012C300602612079100000000E4906070F09060C7
:1012D30026E0F8A3E0F9A3E0FAA3E0FB906070E056
:1012E30025E0243EF582E43460F583E0FEA3E0FFCD
:1012F300E4FCFDEB2FFFEA3EFEED39FDEC38FC90FC
:101303006026120785906070E004F0E0B405BF909A
:101313006026E0FCA3E0FDA3E0FEA3E0FFE47B0581
:10132300FAF9F81206D49060261207853016409019
:101333006049E0FEA3E0FFE4FCFD906026E0F8A333
:10134300E0F9A3E0FAA3E0FB120649E47B707A1705
:10135300F9F81206D490603A12078590603AE0FCDF
:10136300A3E0FDA3E0FEA3E0FF90602612078590B3
:101373006026E0FCA3E0FDA3E0FEA3E0FF90606B2A
:03138300020785D9
:101922009060E8E0640170030219F0E47F0AFEFDB2
:10193200FC906026E0F8A3E0F9A3E0FAA3E0FBD371
:10194200120774405F906026E0FCA3E0FDA3E0FE76
:10195200A3E024F6FBEE34FFFAED34FFF9EC34FF9A
:10196200F8906012E0FEA3E0FFE4FCFDD3120774DE
:1019720040069060E87402F0906026E0FCA3E0FD6F
:10198200A3E0FEA3E0240AFBE43EFAE43DF9E43CD2
:10199200F8906012E0FEA3E0FFE4FCFDC3120774BE
:1019A200504C8044906012E0FEA3E0FFE4FCFD9006
:1019B2006026E0F8A3E0F9A3E0FAA3E0FBD3120764
:1019C2007440069060E87402F0906012E0FEA3E0BA
:1019D200FFE4FCFD906026E0F8A3E0F9A3E0FAA39F
:0F19E200E0FBC312077450069060E87403F02214
:10105D009060E8E06401600302120290601FE0649A
:10106D0001600302120230160302112E906018E087
:10107D007011906069E0FEA3E0FFE4FCFD90602636
:10108D001207859060E3E0C394014053E4F0D390E0
:10109D006013E094B8906012E0940B9060E4E0FC73
:1010AD00A3E0FDA3E0FEA3E0FF500A7B4C7A377965
:1010BD0089783D80087BCD7ACC794C783E1200340E
:1010CD009060E41207859060E4E0FCA3E0FDA3E0EE
:1010DD00FEA3E0FF120163906012EEF0A3EFF0901B
:1010ED006012E0FEA3E0FFE4FCFD906026E0F8A3B3
:1010FD00E0F9A3E0FAA3E0FBD3120774502090604F
:10110D0026A3A3E0FFA3E0906012CFF0A3EFF09031
:10111D0060E412079100000000E49060E8F01221F5
:10112D00DD201603021202906018E0FB7011906032
:10113D0049E0FEA3E0FFE4FCFD906026120785EB7D
:10114D00B4011490603AE0FCA3E0FDA3E0FEA3E03F
:10115D00FF9060261207859060E3E0C39401405331
:10116D00E4F0D3906013E094B8906012E0940B908B
:10117D0060E4E0FCA3E0FDA3E0FEA3E0FF500A7BEA
:10118D004C7A377989783D80087BCD7ACC794C784B
:10119D003E1200349060E41207859060E4E0FCA3F9
:1011AD00E0FDA3E0FEA3E0FF120163906012EEF0FC
:1011BD00A3EFF0906012E0FEA3E0FFE4FCFD906071
:1011CD0026E0F8A3E0F9A3E0FAA3E0FBD31207743D
:1011DD005020906026A3A3E0FFA3E0906012CFF013
:1011ED00A3EFF09060E412079100000000E490601E
:0611FD00E8F01221DD22E2
:101C08009060E8E064026003021C9B906012E0FEB2
:101C1800A3E0FFE4FCFD906026E0F8A3E0F9A3E070
:101C2800FAA3E0FBD312077440213015109060131B
:101C3800E004F07016906012E004F0800E906013DB
:101C4800E0240AF0906012E03400F0906012E0FEA8
:101C5800A3E0FFE4FCFD906026E0F8A3E0F9A3E030
:101C6800FAA3E0FBD31207745026906026A3A3E0E2
:101C7800FEA3E0FF906012EEF0A3EFF0E49060E8BE
:101C8800F0AD07AC0612012A906005120785C2154F
:041C98001221DD2216
:101B67009060E8E064036003021C07906012E0FEE7
:101B7700A3E0FFE4FCFD906026E0F8A3E0F9A3E012
:101B8700FAA3E0FBC3120774502E301508906013B8
:101B9700E024FF801BD3906013E09432906012E042
:101BA70094004006A3E024F68006906013E024FF2B
:101BB700F0906012E034FFF0906012E0FEA3E0FFC7
:101BC700E4FCFD906026E0F8A3E0F9A3E0FAA3E0C7
:101BD700FBC31207744026906026A3A3E0FEA3E090
:101BE700FF906012EEF0A3EFF0FDAC06E412012ABD
:101BF700906005120785C215E49060E8F01221DDB8
:011C070022BA
:100EAA00121FB378D2E2543FF278D0E24408F20833
:100EBA00E24408F208E254CFF278D0E24404F2782D
:100ECA00D2E254F3F278D0E24402F278C2E254FC5D
:100EDA00F278C0E24401F278C2E254CFF278C0E27A
:100EEA004404F278C2E2543FF278C0E24408F220A5
:100EFA00800E9060197401F07BFF7A1479EE800BF2
:100F0A00E4906019F07BFF7A1479FD1208CDD39032
:100F1A0060D6E094A09060D5E0940F400AC2147B9A
:100F2A00FF7A15790C8008D2147BFF7A15791D1285
:100F3A0008CDD39060D8E094A09060D7E0940F4099
:100F4A000AC2167BFF7A15792E8008D2167BFF7AA1
:100F5A0015793E1208CD30820E9060187401F07B2C
:100F6A00FF7A15794E8010E4906018F090601F04A3
:100F7A00F07BFF7A15795D1208CD20830E906011FF
:100F8A007401F07BFF7A15796C800BE4906011F0A4
:100F9A007BFF7A15797C1208CD30932130921E306E
:100FAA00911BE4906010F090601404F0A37460F058
:100FBA00A3742FF07BFF7A15798C021059209322A3
:100FCA0030921F30911C9060107401F0906014747C
:100FDA00FFF0A37416F0A37403F07BFF7A15799FD0
:100FEA00806D30932220921F30911C906010740201
:100FFA00F090601474FFF0A37416F0A3740CF07BE5
:10100A00FF7A1579B2804830932230921F20911CC2
:10101A009060107403F090601474FFF0A37416F0DB
:10102A00A37418F07BFF7A1579C5802320932320B7
:10103A00922030911D9060107404F090601474FF37
:10104A00F0A37416F0A37424F07BFF7A1579D812F2
:03105A0008CD229C
:10175700906019E0640160030218527F107E0EFD4D
:10176700FC90601BE0F8A3E0F9A3E0FAA3E0FBC359
:10177700120774501F90601BE0FCA3E0FDA3E0FE7E
:10178700A3E02401FFE43EFEE43DFDE43CFC906061
:101797001B020785D213301661906018E064017050
:1017A7002E906049E0FEA3E0FF7C007D641205A651
:1017B7007C007D4B120594E4FD90603AE0F8A3E0CD
:1017C700F9A3E0FAA3E0FBD3120774402D80009041
:1017D7006049E0FEA3E0FF7C007D641205A67C0063
:1017E7007D4B120594906069EEF0A3EFF090601ABC
:1017F7007401F0E4906019F0D21520163A90601841
:10180700E0601DE47F947E11FDFC906026E0F8A364
:10181700E0F9A3E0FAA3E0FBD312077440198000B4
:101827009060697411F0A37494F090601A7401F0D9
:10183700E4906019F0D215E4906019F0906069E0C7
:0C184700FFA3E0906020CFF0A3EFF022A0
:10163600906011E0FB702B301628906018E0B40122
:101646001090603AE0FCA3E0FDA3E0FEA3E0FF807B
:101656000B906049E0FEA3E0FFE4FCFD90602612DB
:10166600078590601AE064016005EB6401707A30CA
:101676001647906018E0B40140906069E0FEA3E070
:10168600FFE4FCFD90603AE0F8A3E0F9A3E0FAA3DA
:10169600E0FBD31207744011906069E0FEA3E0FFFF
:1016A600E4FCFD90603A12078590603AE0FCA3E006
:1016B600FDA3E0FEA3E0FF802A906069E0FEA3E0C0
:1016C600FFE4FCFD906026E0F8A3E0F9A3E0FAA3AE
:1016D600E0FBD31207744011906069E0FEA3E0FFBF
:1016E600E4FCFD906026120785301464906011E0DA
:1016F600705E201617906018E07011906069E0FE29
:10170600A3E0FFE4FCFD906026120785906069E087
:10171600FEA3E0FFE4FCFD906026E0F8A3E0F9A359
:10172600E0FAA3E0FBD31207744011906069E0FE73
:10173600A3E0FFE4FCFD906026120785906069E057
:101746007002A3E0700A9060261207910000000064
:011756002270
:100CE500906011E064016003020EA990600FE07549
:100CF500F003A4FF906014E0FBA3E0FAA3E02FF952
:100D0500EA35F0FA900002120555F47003020EA9B7
:100D150090600BE0FCA3E0FDA3E0FEA3E02401FF4F
:100D2500E43EFEE43DFDE43CFC90600B120785903B
:100D3500600FE075F003A4FF906014E0FBA3E0FAF8
:100D4500A3E02FF9EA35F0FA900002120555FE7579
:100D5500F00EA4CE75F010A4FFE5F02EFEE4FCFD28
:100D650090600BE0F8A3E0F9A3E0FAA3E0FBC3125F
:100D750007745003020EA990600FE004F0D215909D
:100D8500600B12079100000000906014E0FBA3E0E7
:100D9500FAA3E0F990600FE075F003A4F58285F001
:100DA50083120611FF906069E5F0F0A3EFF0D2130E
:100DB500201603020E40906069E0FEA3E08EF0125B
:100DC50008080E2207080E120BB80DFD0E100DE8CF
:100DD50010680DDF177000000E40906049E0FFA31A
:100DE500E08034906049E0FEA3E0FF7C007D0A12BC
:100DF50005A67C007D078038906049E0FEA3E0FFF2
:100E05007C007D0A1205A67C007D06802390604942
:100E1500E0C313FFA3E013906069CF801A90604987
:100E2500E0FEA3E0FF7C007D0A1205A67C007D03A1
:100E3500120594906069EEF0A3EFF0906018E0B4AD
:100E45000137301434906011E0702E906069E0FE37
:100E5500A3E0FFE4FCFDA3E0F8A3E0F9A3E0FAA317
:100E6500E0FBC3120774501190606BA3A3E0FFA3CE
:100E7500E0906069CFF0A3EFF0906069E0FAA3E03D
:100E8500FBFFAE02E4FCFD906026120785301614C8
:100E9500906018E0B4010DAF03AE02E4FCFD906074
:050EA5003A120785224E
:101D2800201703021DB37BFF7A1579EA122125904B
:101D38006067E004F0E0C394054070E49060EFF061
:101D4800906067F0C217906012F0A3F09060697419
:101D580017F0A37470F0E4906010F090600B120715
:101D68009100000000E4906011F090600FF0906026
:101D780019F0A3F0A312079100000000E490601886
:101D8800F090602612079100000000C214C216905D
:101D9800600512079140000000120EAA9060E874D6
:0C1DA80001F07BFF7A1579F81208CD22BB
:101FB300E49060EFF0906067F0C217906012F0A3B6
:101FC300F09060697417F0A37470F0E4906010F0FF
:101FD30090600B12079100000000E4906011F090F4
:101FE300600FF0906019F0A3F0A3120791000000B6
:101FF30000E4906018F09060261207910000000042
:0F200300C214C21690600512079140000000221F
:10228C006C7664330A006C7664340A006C766420D5
:09229C00707772206F6E200A00B9
:041B5A004160F000F6
:03000F00021E3B93
:101E3B00C0E0C0F0C083C082C0D075D000C000C06D
:101E4B0001C002C003C004C005C006C00775B2A024
:101E5B0090715BE030E410E04410F09060EF74019F
:101E6B00F0A3E0FF1222CB9060F0E0B4031190607E
:101E7B00EF7403F0D2177BFF7A22798C1221259015
:101E8B0060F0E0B4040F9060EF7404F07BFF7A22F3
:101E9B00799212212575B250D007D006D005D00407
:101EAB00D003D002D001D000D0D0D082D083D0F0DC
:031EBB00D0E03242
:10223F0043A801D2AF90715AE05442F0E04495F0B8
:0A224F00A3E0F09060F07403F022A9
:1022590043A801D2AF90715AE05442F0E0449DF096
:0A226900A3E0F09060F07404F0228E
:1021B2009060EFE0B4041AE4F07F0AFE1222A590C8
:1021C20060EFE0700C7BFF7A2279981221251222AF
:0B21D2003F9060EFE0B40302D2172240
:081B5E004160DF004160E0007E
:1020A50078E2E244C0F278F2E24403F278E0E244F6
:1020B50080F208E2F278F0E24401F208E2F290716F
:1020C50023E054D8F0E0441EF09071227407F075B7
:1020D50099177869E24448F2759A18E24450F27FFC
:0620E500017E000222A5AD
:1019F1007869E24401F2786BE230E1FA7402F2AF05
:101A010093EF75F010A4FFE594C4540FFDEF4DFF63
:101A11009060D5E5F0F0A3EFF07869E24402F27846
:101A21006BE230E2FA7404F2AF95EF75F010A4FFA7
:101A3100E596C4540FFDEF4DFF9060D7E5F0F0A39C
:101A4100EFF09060D5E0FEA3E0FF9060DAE02FF0C8
:101A51009060D9E03EF09060D7E0FEA3E0FF906097
:101A6100DEE02FF09060DDE03EF09060DFE004F01A
:101A7100E0B40A3F9060D9E0FEA3E0FF7C007D0A5C
:101A81001205A69060E1EEF0A3EFF09060DDE0FEBC
:101A9100A3E0FF7C007D0A1205A69060DBEEF0A3B7
:101AA100EFF0E49060DFF09060D9F0A3F09060DD9A
:041AB100F0A3F0228C
:10002D000201CFE86480F8E933E83360110460F031
:10003D00ED33EC337009E8FCE9FDEAFEEBFF220439
:10004D0060DED3EB9FEA9EE99DE8C2E78CF0C2F734
:10005D0095F0400CE8CCF8E9CDF9EACEFAEBCFFB00
:10006D0012019A85D0F05804700320D5B3E80470BE
:10007D00075002B2D50201D992D5EC0460F7E4CC59
:10008D00C0E0C398F8603B94186008400DD0E0FBC9
:10009D000201B1E4FBFAC9FC8028E830E406E4C9AA
:1000AD00FBE4CAFCE830E305E4C9CACBFCE854071D
:1000BD006010F8C3E913F9EA13FAEB13FBEC13FC28
:1000CD00D8F130F52FC3E49CFCEF9BFFEE9AFEEDCB
:1000DD0099FDD0E0FBEF4E4D4C701222DB03020177
:1000ED00D6EC2CFCEF33FFEE33FEED33FDED30E7B8
:1000FD00EB0201B1EF2BFFEE3AFEED39FDD0E0FB47
:10010D0050130BBB00030201D9ED13FDEE13FEEFEF
:08011D0013FFEC13FC0201B119
:1001250075F020800E75F010800575F0087D007E55
:10013500007F003392D530D503120766EC334010AB
:10014500EF33FFEE33FEED33FDEC33FCD5F0ED225E
:0E015500E5F0247EA2D513CC92E7CDCEFF229A
:10016300EDD2E7CD33EC3392D524814006E4FFFE94
:10017300FDFC22FCE4CFCECDCC24E0501174FF80F3
:10018300EDC3CC13CCCD13CDCE13CECF13CF047090
:07019300F030D5DE02076623
:10086200E50D24A4F582E43460F583E0050D2290C1
:1008720060A13010039060A4E475F0011207C20277
:10088200053C2009E97F2ED2098018EF540F2490ED
:10089200D43440D4FF300D0BEF24BFB41A00500300
:1008A2002461FFE50E6002150E0511E511700205C7
:1008B2001030100E9060A1E475F0011207C2EF0231
:1008C20005820222BD7403D2108003E4C210F50D2A
:1008D2009060A11207D9E4F50EF510F511E50E604E
:1008E200077F201208A580F5750FFFC20AC209C250
:1008F2000BC20CC20EC20FC211120871FF700D3072
:1009020010057F001208B6AF11AE1022B4255FC2E7
:10091200D5C20D120871FF24D0B40A00501A75F026
:100922000A780E30D50508B6FF0106C6A426F620C1
:10093200D5047002D20C80D924CFB41A00EF50042F
:10094200C2E5D20D020BA8D20A80C6D20980C0D25B
:100952000B80BCD2D580BAD20E80B47F201208A5FB
:10096200200B077401B50E0040F1120862FF120855
:10097200A50208DFD211D20F8095120862FB12087D
:1009820062FA120862F94A4B700679A67A0C7BFF6A
:10099200200B2EE50E602A7E008E827583001205E2
:1009A2005560060EEE650F70F0C2D5EBC0E0EAC0EE
:1009B200E0E9C0E0EE120C09D0E0F9D0E0FAD0E0B4
:1009C200FB12053CFF60AAEBC0E0EAC0E0E9C0E030
:1009D2001208A5D0E02401F9D0E03400FAD0E0FBFF
:1009E200E50F0460DCD50FD98087D20B80A2120BF1
:1009F200EB60F7E50F7001041201E4A90F600DE549
:100A02000F600914F50F120C93EF60F3EA30E7025E
:100A1200F404C3995079EAF4250F0430E701E404A1
:100A2200F50F800D120BEB60C1EA050F250F1201C5
:100A3200E4EA9060D0F030E701E4250F04D50F041A
:100A4200200E0114120C09E4C0E0120C939060D045
:100A5200E0601320E70714F012088D802204F0D022
:100A6200E014C0E07F0012088DE50F6007120884D1
:100A7200150F800B300E03120884D0E00208DFD07D
:100A8200E00480C4120BEB609EE50F041201E490B7
:100A920060D0EAF0E50F200E026001042404120C7B
:010AA200094A
:100AA30074FF04C0E0120C9312088DE50F200E02B0
:100AB3006003120884D0E0B50FE87F4512089790D1
:100AC30060D0E07F2B30E7047F2DF404C0E01208F0
:100AD300A5D0E075F00A84C0F012088ED0E01208A9
:100AE3008E0208DF791080027908C20FC2118008D4
:100AF300D2D5790A8004790AC2D5E50F047002F5CC
:100B03000FE4FAFDFEFF120862FC7B08200A1312B1
:100B13000862FD7B1030090A120862FE120862FFA8
:100B23007B20EC3382D592D55013C3E43009069F62
:100B3300FFE49EFEE4200A039DFDE49CFCE4CBF865
:100B4300C20AEC700CCFCECDCCE824F8F870F38059
:100B530017C3EF33FFEE33FEED33FDEC33FCEB3322
:100B6300FB994002FB0FD8E9EB300A05F8D0E0C44B
:100B730048B20AC0E00AEC4D4E4F78207B0070C2A9
:100B8300EAB50F0040BCC0E0120C0BD0F0D0E0205F
:100B93000A04C4C0E0C4B20AC0F012088ED0F0D573
:100BA300F0EB0208DF1207E2097C530AE758094D0C
:100BB3004C0949420AEB4F0AF3440AF349096243D9
:100BC3000AF9550A26460A864509F0470CC6500914
:100BD300512D09552E09782B0959230976200CAF7D
:100BE3002A09114800000970E50FB4FF03750F06C9
:100BF300120862FC120862FD120862FE120862FF0C
:100C03009060C9020221790AA2D5200C14300E0982
:100C1300B910020404B9080104A2D5200F0250013F
:100C230004200B68920BB50E005034C0E07F2030D7
:100C33000C197F30A20B720F720E500F120C62C28E
:100C43000BC20FC20EC2117F30800F300E03E9C0FA
:100C5300E01208A5300E03D0E0F9D0E0B50ECC3099
:100C63000E177F30B9100C1208A57F58300D077F7F
:100C7300788003B908031208A5300B057F2D0208FD
:100C8300A57F202011F87F2B200FF322920B80CF1A
:100C93007F00B40700500B24C9F582E43460F58368
:100CA300E0FF22286E756C6C2900D20A12086230AC
:100CB3000AF8C20A780E30D50108F60209112D5040
:100CC3004349581208622403B405004001E4900C20
:100CD300C193120896743A120896D20C750E040248
:020CE3000AE71E
:10019A00E9D2E7C933E833F892D5EDD2E7CD33ECAB
:0701AA0033FC5002B2D52224
:1001B100EC30E7100FBF000C0EBE00080DBD0004AF
:1001C1000BEB6014A2D5EB13FCED92E7FD2274FF5B
:1001D100FCFDFEFF22E480F8A2D574FF13FC7D80B4
:0301E100E480EFC8
:1001E400F920E73624F950037907E4F42402FBE507
:1001F40082158270021583DBF6E024FB501BE96054
:1002040014E4F0E582158270021583E004F0B40A68
:0D02140008E4F0D9EE7401F00A22C2D522F0
:10022100ED33EC3392D5FA602AB4FF33EDC2E77BAC
:10023100FF60067A027946E4227A02794F20D504DA
:100241007A02794A224E614E002B494E46002D49D1
:100251004E4600E47A08F0A3DAFC7B00740722C062
:1002610083C082ECC0E0EDC0E0EEC0E0EFC0E0EAA8
:1002710075F010A4CAABF075F04DA42BFBE435F07A
:10028100FCEA2410FAEB34C5FBEC34D9FCEDC2E7EF
:10029100FF75F056A4F42411C5F0F434C58FF0A411
:1002A1002AE5F03BE43CF020E7141204FCD0E0FF27
:1002B100D0E0FED0E0FDD0E0FC12042F8014F40465
:1002C1001204FCD0E0FFD0E0FED0E0FDD0E0FC1253
:1002D1000326D082D083E0FAEDD2E7CD33EC33248C
:1002E10082FBE4C3CF33CFCE33CECD33CD33DBF37B
:1002F1007B0775F00A846004F0A31B0AE5F0F0A304
:100301008FF0740AA4FFACF08EF0740AA42CFEAC3A
:10031100F050010C8DF0740AA42CFDE435F0F0A32B
:05032100DBDE74072281
:10032600EC4D6011E8497017ED33EC3304600DE4D1
:10033600FCFFFEFD22E933E8330470F80201CF1218
:10034600019A58046009E4CC248150062850090219
:1003560001D92840030201D6C0E0EB4A7044B980B7
:1003660006D0E0FB0201C5EF4E701CBD8008EBFF16
:10037600EAFEE9FD80EBE98DF0A4FEE5F002040F4C
:10038600E9CDF9EAFEEBFFEF89F0A4FCE5F0CE89B2
:10039600F0A42EFFE435F0CD89F0A42DFEE435F06F
:1003A6008067EF4E7005BD80D780C3EF8BF0A4AC9D
:1003B600F0EE8BF0A42CFCE435F0F8EF8AF0A42CD8
:1003C600E5F038FCE433CB8DF0A42CFCE5F03BF8EB
:1003D600EE8AF0A42CFCE5F038F8E433CF89F0A4DB
:1003E6002CFCE5F038CF3400CE89F0A42FFFE5F0E1
:1003F6003EFEE433C98DF0A42EFEE5F039CD8AF039
:10040600A42FFFE5F03EFEE43DFD33D0E0FB5007B0
:100416000BBB000F0201D9EC2CFCEF33FFEE33FED1
:06042600ED33FD0201B1FF
:10042C000201D9EC5D046005E8590470030201CFA8
:10043C0012019A580460F6EC4860F2EC7004FDFE70
:10044C00FF22C860DB2481C85009C39860025006A3
:10045C000201D69850CAF582E9294B4A7005AB8245
:10046C000201C575F0007C1A7880C3EF9BEE9AED03
:10047C0099400DC3EF9BFFEE9AFEED99FDE842F01B
:10048C00DC23ACF0D0E0FFD0E0FED0E0FDAB82206E
:10049C00E7101BEB60BAEC2CFCEF33FFEE33FEEDF8
:1004AC0033FD0201B1E803F830E705C0F075F00048
:1004BC00EF2FFFEE33FEED33FD40B830E7C280AADC
:1004CC003F8000004120000042C80000447A000038
:1004DC00461C400047C35000497424004B189680BA
:1004EC004CBEBC205A0E1BCA6753C21C749DC5AEB1
:1004FC00FB60065407601C232312052AEB5438605A
:10050C0009120516120525120326ECF8EDF9EEFA80
:10051C00EFCB22EB12052580F1543803241C9004F8
:10052C00CCFE93FC0EEE93FD0EEE930ECE93FF22BB
:101CA800021F3DE493A3F8E493A34003F68001F2F6
:101CB80008DFF48029E493A3F85407240CC8C3333D
:101CC800C4540F4420C8834004F456800146F6DF0C
:101CD800E4800B0102040810204080901AB5E47ECD
:101CE800019360BCA3FF543F30E509541FFEE49301
:101CF800A360010ECF54C025E060A840B8E493A3C8
:101D0800FAE493A3F8E493A3C8C582C8CAC583CAF2
:101D1800F0A3C8C582C8CAC583CADFE9DEE780BEAA
:011B6600007E
:10053C00BB010689828A83E0225002E722BBFE02BD
:09054C00E32289828A83E49322F0
:10055500BB010CE58229F582E5833AF583E022505B
:1005650006E92582F8E622BBFE06E92582F8E222A5
:0D057500E58229F582E5833AF583E49322BF
:10058200BB010689828A83F0225002F722BBFE0158
:02059200F32252
:10059400EF8DF0A4A8F0CF8CF0A428CE8DF0A42E7B
:0205A400FE2235
:1005A600BC000BBE0029EF8DF084FFADF022E4CC39
:1005B600F875F008EF2FFFEE33FEEC33FCEE9DEC02
:1005C600984005FCEE9DFE0FD5F0E9E4CEFD22ED48
:1005D600F8F5F0EE8420D21CFEADF075F008EF2F92
:1005E600FFED33FD4007985006D5F0F222C398FD83
:0505F6000FD5F0EA2220
:1005FB00A3F8E0C5F025F0F0E582158270021583B3
:06060B00E0C838F0E8220F
:10061100BB0110E58229F582E5833AF583E0F5F027
:10062100A3E0225009E92582F886F008E622BBFE04
:100631000AE92582F8E2F5F008E222E5832AF5834A
:08064100E993F5F0A3E993220F
:10064900E88FF0A4CC8BF0A42CFCE98EF0A42CFC50
:100659008AF0EDA42CFCEA8EF0A4CDA8F08BF0A4CE
:100669002DCC3825F0FDE98FF0A42CCD35F0FCEB2D
:100679008EF0A4FEA9F0EB8FF0A4CFC5F02ECD39F2
:0F068900FEE43CFCEAA42DCE35F0FDE43CFC225F
:1006980075F008758200EF2FFFEE33FECD33CDCC19
:1006A80033CCC58233C5829BED9AEC99E58298409C
:1006B8000CF582EE9BFEED9AFDEC99FC0FD5F0D679
:1006C800E4CEFBE4CDFAE4CCF9A88222B800C1B9A3
:1006D8000059BA002DEC8BF084CFCECDFCE5F0CBE1
:1006E800F97818EF2FFFEE33FEED33FDEC33FCEB1A
:1006F80033FB10D703994004EB99FB0FD8E5E4F9D5
:10070800FA227818EF2FFFEE33FEED33FDEC33FCC1
:10071800C933C910D7059BE99A4007EC9BFCE99AB5
:10072800F90FD8E0E4C9FAE4CCFB2275F010EF2FFA
:10073800FFEE33FEED33FDCC33CCC833C810D707FA
:100748009BEC9AE899400AED9BFDEC9AFCE899F835
:0E0758000FD5F0DAE4CDFBE4CCFAE4C8F922C8
:0E076600C3E49FFFE49EFEE49DFDE49CFC22A4
:10077400EB9FF5F0EA9E42F0E99D42F0E89C45F0DB
:010784002252
:0C078500ECF0A3EDF0A3EEF0A3EFF022E7
:10079100A8828583F0D083D0821207A81207A812FD
:1007A10007A81207A8E473E493A3C583C5F0C58322
:1007B100C8C582C8F0A3C583C5F0C583C8C582C8B2
:0107C1002215
:1007C200F8E0FBA3A3E0F925F0F0E58215827002C0
:0707D2001583E0FA38F02264
:0907D900EBF0A3EAF0A3E9F02221
:1007E200D083D082F8E4937012740193700DA3A3A6
:1007F20093F8740193F5828883E4737402936860BA
:06080200EFA3A3A380DFB9
:10080800D083D082F8E4937012740193700DA3A37F
:1008180093F8740193F5828883E473740293B5F0B6
:0D082800067403936860E9A3A3A3A380D81E
:10083500EC8EF0A4CCC5F0CCCDF8EFA4CEC5F02D50
:10084500FDE43CFCE8A42EC8C5F03DFDE43CFCEF0E
:0D085500A4FFE5F028FEE43DFDE43CFC229C
:00000001FF
